:020000040800F2
:100000003004002045010008E5290008E729000820
:10001000EB290008EF290008F32900080000000080
:10002000000000000000000000000000F7290008A8
:10003000F929000800000000FB290008FD2900083C
:100040005F0100085F0100085F0100085F01000810
:100050005F0100085F0100085F0100085F01000800
:10006000FD2500088F260008052700085F0100080D
:100070005F0100085F0100085F0100085F010008E0
:100080005F0100085F0100085F0100085F010008D0
:100090005F0100085F0100085F01000807270008F2
:1000A0005F0100085F0100085F0100085F010008B0
:1000B0005F0100080B270008092700085F010008FE
:1000C0005F0100085F0100085F0100085F01000890
:1000D0005F0100080D2700085F0100080F270008D6
:1000E0005F0100085F0100085F0100085F01000870
:1000F0005F0100085F0100085F0100085F01000860
:100100005F0100085F0100085F0100085F0100084F
:100110005F0100088F2A00085F0100085F010008E6
:100120005F0100085F0100085F0100085F0100082F
:10013000DFF80CD002F042FF00480047A525000878
:10014000300400200648804706480047FEE7FEE7E7
:10015000FEE7FEE7FEE7FEE7FEE7FEE7FEE7FEE777
:1001600045020008310100080CB500200190009004
:100170006B48006840F480306949086000BF6848F7
:10018000006800F4003000900198401C0190009835
:1001900018B90198B0F5A06FF1D16148006810F46A
:1001A000003F02D00120009001E000200090009864
:1001B000012842D15B48006840F0100059490860AE
:1001C0000846006820F0030008600846006840F018
:1001D000020008605248406851494860084640683B
:1001E00048600846406840F48060486008464068BF
:1001F00020F47C1048600846406840F4E8104860ED
:100200000846006840F08070086000BF44480068FD
:1002100010F0007FFAD04248406820F003004049C7
:1002200048600846406840F00200486000BF3C4813
:10023000406800F00C000828F9D10CBD10B5FFF79C
:1002400093FF10BD10B53648006840F001003449F6
:10025000086008464068344908403149486008460B
:100260000068324908402E4908600846006820F4BA
:10027000802008600846406820F4FE0048604FF483
:100280001F008860FFF7DAFF4FF000602849086020
:1002900010BD10B5002100200022214B5B6803F047
:1002A0000C0121B1042906D0082928D107E0214BEF
:1002B000214C236027E01F4B1F4C236023E0184B89
:1002C0005B6803F47010164B5B6803F48032022302
:1002D00003EB904022B9194B4343174C23600DE0C8
:1002E0000F4B5B6813F4003F04D0144B4343124C94
:1002F000236003E00F4B43430F4C236003E00D4B9F
:100300000D4C236000BF00BF054B5B68C3F30313B4
:100310000B4CE15C084B1B68CB40074C236010BDC5
:1003200000100240002002400000FFF8FFFFF6FE30
:1003300008ED00E000127A000000002000093D00F6
:100340000400002031490143314A1160704770B503
:10035000002100230F22C4780CB32D4C246804F430
:10036000E064C4F5E064210AC1F10403CA404478A2
:1003700004FA03F18478144021430901254C0678DE
:10038000A155047804F01F050124AC4005786D11D7
:100390004FF0E02606EB8505C5F8004109E004783A
:1003A00004F01F050124AC401B4D0678761145F87A
:1003B000264070BD194A0A400243154B1B1F1A60A4
:1003C000704739B1124A121D12680243104B1B1DAF
:1003D0001A6006E00E4A121D126882430C4B1B1D68
:1003E0001A607047042808D14FF0E021096941F0F4
:1003F00004014FF0E022116107E04FF0E0210969AC
:1004000021F004014FF0E022116170470000FA056D
:100410000CED00E000E400E080E100E080FFFF1F61
:1004200010B50446FA48844208D10121401500F075
:10043000DDFD0021601500F0D9FD17E0F54884428C
:1004400008D10121001500F0D1FD0021201500F098
:10045000CDFD0BE0F048844208D10121C80300F033
:10046000C5FD00214FF4004000F0C0FD10BD30B5C7
:100470000246002000235068E84C20400D790C68AB
:1004800044EA0524204350609068E54C2040D1E9BF
:1004900002542C434D7944EA450420439060D06ACD
:1004A00020F470000C7C641EE4B2234340EA035045
:1004B000D06230BD00210160017141718160C16075
:1004C00001210174704721B1826842F0010282600B
:1004D00003E0826822F001028260704721B18268E5
:1004E00042F48072826003E0826822F4807282604B
:1004F000704710B50023CBB21AB144681C43446066
:1005000002E044689C43446010BD816841F00801EA
:1005100081607047014600208A6812F0080F01D000
:10052000012000E000207047816841F004018160F3
:100530007047014600208A6812F0040F01D00120A4
:1005400000E00020704721B1826842F4A00282607E
:1005500003E0826822F4A002826070470146002016
:100560008A6812F4800F01D0012000E0002070475B
:1005700010B50A4600210023416821F46041531E52
:1005800041EA4331416010BD21B1426842F400624A
:10059000426003E0426822F4006242607047F0B5B6
:1005A00004460D4600200021092D11DDE068A5F16B
:1005B0000A0606EB4607072606FA07F18843A5F167
:1005C0000A0606EB460603FA06F10843E0600CE073
:1005D000206905EB4507072606FA07F1884305EB76
:1005E000450603FA06F108432061072A0FDA606B1B
:1005F000561E06EB86071F2606FA07F18843561E8D
:1006000006EB860605FA06F10843606322E00D2A30
:100610000FDA206BD61F06EB86071F2606FA07F1B6
:100620008843D61F06EB860605FA06F108432063C9
:1006300010E0E06AA2F10D0606EB86071F2606FA17
:1006400007F18843A2F10D0606EB860605FA06F1CE
:100650000843E062F0BD21B1826842F480128260FA
:1006600003E0826822F48012826070470146C86C01
:1006700080B2704766484C300068704721B14268CC
:1006800042F48062426003E0426822F48062426089
:10069000704721B1426842F48052426003E04268F0
:1006A00022F48052426070470A460021816821F49A
:1006B000E04111438160704721B1826842F40042F9
:1006C000826003E0826822F400428260704721B1B8
:1006D000826842F40212826003E0826822F402120D
:1006E00082607047014600208A6812F4001F01D022
:1006F000012000E000207047F0B5044615460020B8
:1007000000220026092911DDE068A1F10A0707EBA4
:10071000470C072707FA0CF29043A1F10A0707EBF1
:10072000470703FA07F21043E0600CE0206901EB91
:10073000410C072707FA0CF2904301EB410703FA3B
:1007400007F210432061A06BC0F30156EF1C06F1C5
:10075000010CA7EB0C0707EB870C1F2707FA0CF21D
:100760009043EF1C06F1010CA7EB0C0707EB870782
:1007700001FA07F21043A063F0BD10B50A4600214C
:100780000023816B21F44011531E41EA0351816320
:1007900010BD08B5002300930090009B0B4400930C
:1007A000009B1A6008BD08B5024600200090009228
:1007B00001F12800009B184400900098006880B266
:1007C00008BD0A4600214168164B1940114341609B
:1007D00070474162826270470A460021416821F0F9
:1007E0001F0111434160704740B109490831096850
:1007F00041F40001064A0832116007E0044908315B
:10080000096821F40001024A0832116070470000B3
:100810000024014000280140003C0140FFFEF0FFA1
:10082000FDF7F1FFFFFD3FFF0246002013680B427A
:1008300001D0012000E000207047CA4302607047E9
:1008400070B502460020002300240B125568CEB27A
:1008500005EA060415681D4202D00CB1012000E033
:10086000002070BD00220A12D343036070470000CD
:10087000002044490860091D0860091D0860091D21
:10088000086041483F4914310860704700213D49E4
:100890008279002A3AD00A46126803689A430B46C6
:1008A0001A600A1D126803689A430B1D1A600279C8
:1008B00011440A6803681A430A60324A083212680F
:1008C00003689A432F4B08331A601A1D1268036895
:1008D0009A432C4B0C331A604279102A0ED11A1FFE
:1008E000126803681A43274B08331A601A1D1268EE
:1008F00003681A43234B0C331A600DE021494279F7
:1009000011440A6803681A430A6005E00279114439
:100910000A6803689A430A60704700210160017108
:100920000C2141710021817170471649103109680D
:100930000143144A10321160704701460020114AE9
:10094000143212680A4201D0012000E000207047F2
:100950000C49143108607047014600200022094B01
:100960001B6803EA0102074B14331B680B4202D0D9
:100970000AB1012000E000207047024914310860EC
:100980007047000000040140FFFF0F0010B504464F
:10099000CA48844208D10121042000F027FB00212D
:1009A000042000F023FB46E0C548844208D1012121
:1009B000082000F01BFB0021082000F017FB3AE0A4
:1009C000C048844208D10121102000F00FFB002113
:1009D000102000F00BFB2EE0BB48844208D101211F
:1009E000202000F003FB0021202000F0FFFA22E08D
:1009F000B648844208D10121402000F0F7FA0021D6
:100A0000402000F0F3FA16E0B148844208D10121F9
:100A1000802000F0EBFA0021802000F0E7FA0AE0E5
:100A2000AC48844207D10121801500F0DFFA002193
:100A3000A01500F0DBFA10BD10B50121084600F04A
:100A4000D5FA0021012000F0D1FA10BD2DE9F041C6
:100A5000024600250026002000230024002791F8EC
:100A600003C00CF00F0591F803C01CF0100F03D069
:100A700091F802C04CEA050591F800C0BCF1000FE6
:100A800031D0146800202BE04FF0010C0CFA00F379
:100A9000B1F800C00CEA03069E4220D183004FF05B
:100AA0000F0C0CFA03F7BC4305FA03FC4CEA0404F0
:100AB00091F803C0BCF1280F06D14FF0010C0CFADD
:100AC00000FCC2F814C00AE091F803C0BCF1480F62
:100AD00005D14FF0010C0CFA00FCC2F810C0401C0C
:100AE0000828D1D31460B1F800C0BCF1FF0F34DD89
:100AF000546800202EE000F1080C4FF0010808FABD
:100B00000CF3B1F800C00CEA03069E4221D1830029
:100B10004FF00F0C0CFA03F7BC4305FA03FC4CEA48
:100B2000040491F803C0BCF1280F05D100F1080CB2
:100B300008FA0CF8C2F8148091F803C0BCF1480F11
:100B400007D100F1080C4FF0010808FA0CF8C2F8C0
:100B50001080401C0828CED35460BDE8F0814FF6C9
:100B6000FF710180022181700421C170704702462B
:100B7000002093680B4201D0012000E00020704764
:100B80000146886880B2704702460020D3680B4255
:100B900001D0012000E0002070470146C86880B203
:100BA000704701617047416170470AB1016100E01F
:100BB00041617047C16070474FF480320A438261DF
:100BC0008161826182698269704702460020424BDE
:100BD00018684FF68073184040EA021008433E4BF5
:100BE000186070473D49C8617047F0B50A46002358
:100BF00000240021002500F00046B6F1004F02D18C
:100C0000354EF16901E0344E7168C0F3034583B29B
:100C100000F44016B6F5401F08D121F070612E4E49
:100C2000766826F070662C4F7E6012E000F4801625
:100C3000B6F5801F06D1032606FA05F4A14341F05C
:100C4000706106E0460D360103FA06F6B14341F045
:100C5000706122B1460D360103FA06F6314300F009
:100C60000046B6F1004F02D11B4EF16101E01A4E71
:100C70007160F0BD30B500228B071C0F0F2303FA03
:100C800004F2154B08338C1053F824309343124C64
:100C900008348D1044F8253023468C1053F8243046
:100CA0008C07240F00FA04F423430B4C08348D10F6
:100CB00044F8253030BD0A490860704700080140FB
:100CC000000C0140001001400014014000180140D8
:100CD000001C0140002001400000014000002042B3
:100CE000DC002042DD48006840F00100DB4908607C
:100CF00008464068DA490840D84948600846006814
:100D0000D8490840D54908600846006820F480208A
:100D100008600846406820F4FE0048604FF41F0059
:100D200088607047CD49096821F48031CB4A116051
:100D30001146096821F480211160B0F5803F03D08D
:100D4000B0F5802F0ED106E0C449096841F4803126
:100D5000C24A116007E0C149096841F4A021BF4AB5
:100D6000116000E000BF00BF704710B501460022CF
:100D7000002300204A11012A02D1B84C236806E062
:100D8000022A02D1B54C236A01E0B44C636A01F037
:100D90001F02012494401C4201D0012000E00020E9
:100DA00010BD38B5002000900024002500BF312080
:100DB000FFF7DBFF05460098401C00900098B0F557
:100DC000A06F01D0002DF2D03120FFF7CEFF08B187
:100DD000012400E00024204638BD014600209F4A3F
:100DE000106820F0F80040EAC100106070479E498A
:100DF0000860704702460020984B586820F47C1029
:100E000042EA01031843954B5860704796490866BB
:100E1000704701460020914A506820F003000843C3
:100E2000506070478D48406800F00C0070470146E4
:100E300000208A4A506820F0F00008435060704754
:100E400001460020854A506820F4E0600843506065
:100E5000704701460020814A506820F4605040EA03
:100E6000C1005060704729B17C4A527A02437B4BE3
:100E70005A7204E0794A527A8243784B5A72704728
:100E80007A490860704701460020744A506820F48F
:100E900040400843506070470021754A11706F4A06
:100EA00082F82010012802D0042808D103E0012193
:100EB0006F4A117004E005216D4A117000E000BF17
:100EC00000BF70476B49086070476449096A014375
:100ED000624A11627047674944390860704730B50B
:100EE00000210022002400235C4D6D6805F00C01F8
:100EF00021B1042905D0082923D105E05E4D056004
:100F000022E05D4D05601FE0544D6D6805F47012E0
:100F1000524D6D6805F48034022505EB92421CB9F0
:100F2000564D554305600BE04C4D6D6815F4003F80
:100F300003D0524D5543056002E04F4D55430560C7
:100F400002E04D4D056000BF00BF444D6D6805F0E7
:100F5000F00109094A4D6B5C0568DD4045603F4D75
:100F60006D6805F4E061090A454D6B5C4568DD403C
:100F700085603A4D6D6805F46051C90A404D6B5C5F
:100F80004568DD40C560354D6D6805F44041890B0D
:100F90003C4D6B5CC568B5FBF3F5056130BD29B10F
:100FA0002E4A526902432D4B5A6104E02B4A526982
:100FB00082432A4B5A61704729B1284A92690243F9
:100FC000264B9A6104E0254A92698243234B9A6139
:100FD000704729B1214AD2690243204BDA6104E00B
:100FE0001E4AD26982431D4BDA61704729B11B4A00
:100FF000D2680243194BDA6004E0184AD26882438F
:10100000164BDA60704729B1144A12690243134B38
:101010001A6104E0114A12698243104B1A61704749
:1010200014494039086070470F49C86470470B493C
:10103000C87170470948406A40F0807007494862AB
:10104000704701460020054A92680A4201D00120FB
:1010500000E000207047014988727047001002408C
:101060000000FFF8FFFFF6FE00004242D8004242B7
:10107000201002408004424200127A0000093D0024
:10108000140000202400002010B50446FE488442CD
:1010900008D10121C014FFF7A9FF0021E014FFF7D8
:1010A000A5FFC4E0B4F1804F08D101210846FFF745
:1010B000AAFF00210120FFF7A6FFB8E0F348844211
:1010C00008D101210220FFF79EFF00210220FFF737
:1010D0009AFFACE0EE48844208D101210420FFF7DA
:1010E00092FF00210420FFF78EFFA0E0E948844230
:1010F00008D101210820FFF786FF00210820FFF713
:1011000082FF94E0E448844208D101211020FFF7D7
:101110007AFF00211020FFF776FF88E0DF48844245
:1011200008D101212020FFF76EFF00212020FFF7CA
:101130006AFF7CE0DA48844208D101214014FFF7BD
:1011400055FF00216014FFF751FF70E0D54884423D
:1011500009D10121C804FFF749FF00214FF4002005
:10116000FFF744FF63E0D048844209D1012108051C
:10117000FFF73CFF00214FF48010FFF737FF56E0E8
:10118000CA48844209D101214805FFF72FFF0021F9
:101190004FF40010FFF72AFF49E0C548844208D108
:1011A00001214020FFF72FFF00214020FFF72BFFF8
:1011B0003DE0C048844208D101218020FFF723FF91
:1011C00000218020FFF71FFF31E0BB48844208D197
:1011D00001218015FFF717FF0021A015FFF713FF6E
:1011E00025E0B648844209D101210804FFF7FEFE3C
:1011F00000214FF48030FFF7F9FE18E0B048844238
:1012000009D101214804FFF7F1FE00214FF400301D
:10121000FFF7ECFE0BE0AB48844208D101218804C3
:10122000FFF7E4FE00214FF48020FFF7DFFE10BD42
:1012300000220288944B98420ED0994B98420BD0D2
:10124000B0F1804F08D0914B984205D0904B984216
:1012500002D0904B984204D14FF68F731A404B88BE
:101260001A438D4B984207D08C4B984204D04FF6CE
:10127000FF431A40CB881A4302808B8883850B88F2
:101280000385814B98420BD0854B984208D08B4BFD
:10129000984205D08A4B984202D08A4B984201D19D
:1012A0000B7A038601238382704770B500240022E5
:1012B0000023058C4FF6FE7635400584028C83882A
:1012C000048B4FF68F752C40B51E2C400D882C4397
:1012D000751E2A400D892A434D882A436A4DA8422B
:1012E0000BD06F4DA84208D0744DA84205D0744D64
:1012F000A84202D0734DA84213D14FF6F7752A4089
:101300004D892A434FF6FB752A408D882A434FF6B4
:10131000FF652B404FF6FF552B408D892B43CD8920
:101320002B4383800483CD888586028470BD70B58D
:10133000002400220023058C4FF6EF76354005840B
:10134000028C8388048B48F6FF752C404FF6FF45CE
:101350002C400D884FF6FF7606EA05252C434FF604
:10136000DF752A400D8906EA05152A434D8806EAED
:1013700005152A43444DA84202D0494DA8421DD12B
:101380004FF67F752A404D894FF6FF7606EA051520
:101390002A434FF6BF752A408D8806EA05152A4371
:1013A0004FF6FF352B404FF2FF752B408D8906EA33
:1013B00085052B43CD8906EA85052B43838004836D
:1013C000CD880587028470BD70B5002400220023FB
:1013D000058C4FF6FF6635400584028C8388848B2C
:1013E0004FF68F752C404FF6FC752C400D882C4322
:1013F0004FF6FF552A400D894FF6FF7606EA052580
:101400002A434D8806EA05252A431F4DA84202D0EB
:10141000234DA8421DD14FF2FF752A404D894FF64A
:10142000FF7606EA05252A434FF6FF352A408D88C8
:1014300006EA05252A434EF6FF752B404DF6FF754B
:101440002B408D8906EA05152B43CD8906EA051543
:101450002B4383808483CD888587028470BD70B5DB
:10146000002200230024058C4EF6FF7635400584CB
:10147000038C8488828B48F6FF752A404FF6FF451F
:101480002A400D8820E00000002C014000040040AC
:1014900000080040000C0040001000400014004014
:1014A00000340140004C0140005001400054014014
:1014B00000180040001C0040002000400040014097
:1014C00000440140004801404FF6FF7606EA05253A
:1014D0002A434DF6FF752B400D8906EA05352B434F
:1014E0004D8806EA05352B43FA4DA84202D0FA4D45
:1014F000A84208D14BF6FF752C408D894FF6FF7638
:1015000006EA85152C4384808283CD88A0F840505C
:10151000038470BD828B4FF2FF331A408283828B2B
:101520004FF6FF7303EA01231A4382837047F0B535
:101530000C461546002200210026078C4EF6FF7C43
:1015400007EA0C070784828B018C4FF6FF7707EAC6
:10155000043640F6FF473A404FF6FF7707EA052783
:101560003A434FF6FF7707EA03373A43D94FB84279
:101570000ED0D94FB8420BD0B0F1804F08D0D74F22
:10158000B84205D0D64FB84202D0D64FB84206D1A5
:101590004DF6FF77394046F48057394305E047F66A
:1015A000FF57394044F48057394382830184F0BDAA
:1015B000828B4FF6F3731A408283828B0A438283B5
:1015C0007047F0B50C461546002200210026078C16
:1015D0004FF6FF6C07EA0C070784828B018C4FF6ED
:1015E000FF7707EA04264FF60C773A404FF6FF776D
:1015F00007EA03172F433A43B64FB8420ED0B64F0F
:10160000B8420BD0B0F1804F08D0B44FB84205D0EB
:10161000B34FB84202D0B34FB84206D14FF6FF578E
:10162000394046F48077394305E04FF2FF5739409F
:1016300044F48077394382830184F0BD028B4FF2FA
:10164000FF331A400283028B4FF6FF7303EA012334
:101650001A4302837047F0B50C461546002200215C
:101660000026078C4FF6EF7C07EA0C070784028BF5
:10167000018C4FF6FF7707EA041640F6FF473A4021
:101680004FF6FF7707EA03373A434FF6FF7707EA4B
:1016900005273A438F4FB8420ED08F4FB8420BD038
:1016A000B0F1804F08D08D4FB84205D08C4FB84272
:1016B00002D08C4FB84206D14FF6DF77394046F062
:1016C0001007394305E04FF65F77394044F01007C3
:1016D000394302830184F0BD028B4FF6F3731A4045
:1016E0000283028B0A4302837047F0B50C4615460D
:1016F00000220021068C4FF6FE773E400684028BC6
:10170000018C4FF60C7632407E1C06EA03162E43FF
:101710003243704EB0420ED06F4EB0420BD0B0F19B
:10172000804F08D06D4EB04205D06D4EB04202D011
:101730006C4EB04206D14FF6FD76314044F00106C2
:10174000314305E04FF6F576314044F00106314370
:1017500002830184F0BD70B505460C465D488542A4
:101760000ED05D4885420BD0B5F1804F08D05B4864
:10177000854205D05A48854202D05A48854200D158
:1017800000E000BF208850B92389A28861882846DC
:10179000FFF7ABFFE1882846FFF79EFF25E0208892
:1017A00004280AD12389A28861882846FFF753FFBD
:1017B000E1882846FFF742FF17E0208808280AD171
:1017C0002389A28861882846FFF7FBFEE188284626
:1017D000FFF7EEFE09E02389A28861882846FFF71B
:1017E000A6FEE1882846FFF795FE70BD2DE9F04181
:1017F00005460C4600260127608808B9022600E04D
:101800000026A088012801D1022700E001272088B6
:10181000A0B92389A28861882846FFF766FFE1887E
:101820002846FFF759FF23893A4631462846FFF7F5
:1018300012FFE1882846FFF701FF13E02389A28801
:1018400061882846FFF707FFE1882846FFF7F6FE84
:1018500023893A4631462846FFF747FFE188284664
:10186000FFF73AFFBDE8F0810A884B881A438B885E
:101870001A43CB881A430B891A434B891A438B8925
:101880001A43A0F8442070474FF6FF718180002171
:101890000180C18041800172704700210180418038
:1018A0008180C180018141818181C1817047002196
:1018B00001804180012181800021C1800181704728
:1018C0000021018041808180C1800181418181812D
:1018D00070470000002C014000340140000400402B
:1018E00000080040000C004021B1028842F00102D3
:1018F000028004E002884FF6FE731A4002807047AF
:1019000031B1B0F8442042F40042A0F8442005E090
:10191000B0F84420C2F30E02A0F8442070471AB178
:1019200083890B43838102E083898B4383817047E2
:101930008182704741EA0203A0F8483070471AB12B
:1019400083890B43838102E083898B4383817047C2
:1019500001894FF6F8721140018170470A46002153
:1019600001894FF68F73194011430181704730B5DB
:1019700004460D4629462046FFF7F0FF208940F037
:101980000700208130BD2DE9F04104460D46164682
:101990001F46602D06D13B46012231462046FFF707
:1019A0005AFE05E03B46012231462046FFF79DFEE8
:1019B00029462046FFF7D2FF208940F0070020810A
:1019C000BDE8F08130B50C4600210189C9B24FF65F
:1019D000FF7505EA0325154325432943018130BDE1
:1019E0002DE9F04105460E46174698460024434629
:1019F0003A4631462846FFF7E5FF2C894FF6F87046
:101A0000044044F007044FF68F70044044F0700423
:101A10002C81BDE8F081F0B504460D4616461F4600
:101A20003B46324629462046FFF7CCFF208940F44A
:101A300080402081F0BD0185828270470A460021E6
:101A400001884FF68F731940114301807047F0B53C
:101A50000C4615461E460021002200230189028BF8
:101A6000038C4FF6F877394021434FF6FC473A4054
:101A700040F201173A434FF6DD773B404FF6FF77D0
:101A800007EA06172F433B43018102830384F0BD1D
:101A90000A460021018B4FF68F73194011430183D1
:101AA00070470A460021018B48F6FF7319404FF634
:101AB000FF7303EA02231943018370470A4600219A
:101AC000818B4FF68F7319401143818370470A460B
:101AD0000021818B48F6FF7319404FF6FF7303EA2C
:101AE000022319438183704721B1028842F08002AA
:101AF000028004E002884FF67F731A40028070472C
:101B000021B1828842F00402828004E082884FF68C
:101B1000FB731A408280704721B1828842F008022C
:101B2000828004E082884FF6F7731A408280704703
:101B300021B1828842F00102828004E082884FF65F
:101B4000FE731A40828070470A460021018B4FF6CF
:101B5000F77319401143018370470A460021018B36
:101B60004FF2FF7319404FF6FF7303EA0223194344
:101B7000018370470A460021818B4FF6F7731940A5
:101B80001143818370470A460021818B4FF2FF7316
:101B900019404FF6FF7303EA02231943818370470C
:101BA0000A460021018B4FF6FB7319401143018354
:101BB00070470A460021018B4FF6FF3319404FF65C
:101BC000FF7303EA02231943018370470A46002189
:101BD000818B4FF6FB7319401143818370470A468E
:101BE0000021818B4FF6FF3319404FF6FF7303EA54
:101BF00002231943818370470A460021018B4FF667
:101C00007F7319401143018370470A460021018BFD
:101C1000C1F30E014FF6FF7303EA02231943018358
:101C200070470A460021818B4FF67F73194011439C
:101C3000818370470A460021818BC1F30E014FF664
:101C4000FF7303EA02231943818370470A46002188
:101C5000018C4FF6FD7319401143018470470A4609
:101C60000021018C4FF6F77319401143018470472E
:101C70000A460021018C4FF6DF7319404FF6FF73BF
:101C800003EA02131943018470470A460021018CBC
:101C90004FF67F7319404FF6FF7303EA021319439F
:101CA000018470470A460021018C4FF6FF5319400A
:101CB0004FF6FF7303EA02231943018470470A4673
:101CC0000021018C4FF2FF7319404FF6FF7303EAB6
:101CD00002231943018470470A460021018C4DF606
:101CE000FF7319404FF6FF7303EA0233194301846F
:101CF000704730B5002301248C40A3B2048C9C4370
:101D00000484048C02FA01F5ADB22C43048430BD86
:101D100030B5002304248C40A3B2048C9C4304847B
:101D2000048C02FA01F5ADB22C43048430BD70B5C9
:101D30000346002000241846183001258D40ACB21F
:101D40001D8CA5431D8409B1082909D100EB610050
:101D5000056825F0700505600568154305600EE00F
:101D60000D1FC5F34E052844056825F4E0450560C0
:101D700005684FF6FF7606EA02263543056070BD1A
:101D800021B1028842F00202028004E002884FF68C
:101D9000FD731A400280704721B1028842F00402AC
:101DA000028004E002884FF6FB731A4002807047FD
:101DB00021B1828842F08002828004E082884FF65E
:101DC0007F731A408280704702884FF6F7731A407B
:101DD000028002880A430280704782884FF68F7320
:101DE0001A40828082880A438280704702894FF6B7
:101DF000F8731A40028102890A43028170470289FE
:101E00004FF67F731A40028102890A4302817047AC
:101E1000818470478185704781867047018770474C
:101E200081877047A0F84010704702884FF6FF4343
:101E30001A40028002880A43028070470146888E59
:101E400070470146088F70470146888F70470146EA
:101E5000B1F8400070470146888C70470146088DF4
:101E6000704702460020138A0B4201D0012000E097
:101E700000207047CA430282704730B502460020F6
:101E800000230024158A05EA0103958905EA010467
:101E900013B10CB1012000E0002030BDCA43028222
:101EA0007047000010B50446FB48844209D1012167
:101EB0008803FFF79BF800214FF48040FFF796F866
:101EC00032E0F648844209D101214804FFF79BF82B
:101ED00000214FF40030FFF796F825E0F0488442E7
:101EE00009D101218804FFF78EF800214FF48020EA
:101EF000FFF789F818E0EB48844209D10121C804B2
:101F0000FFF781F800214FF40020FFF77CF80BE089
:101F1000E548844208D101210805FFF774F8002143
:101F20004FF48010FFF76FF810BD2DE9F04786B031
:101F300005460E460024A24600BFA1460027B089F0
:101F400000B100BF2F462C8A4CF6FF700440F08889
:101F500004432C82AC894EF6F3100440B0883189DA
:101F60000843718908430443AC81AC8A4FF6FF40B3
:101F70000440B0890443AC8201A8FEF7B0FFC64814
:101F8000874202D1DDF810A001E0DDF80CA0A8899D
:101F900010F4004F08D00AEBCA0000EB0A103168B9
:101FA0004900B0FBF1F807E00AEBCA0000EB0A10A9
:101FB00031688900B0FBF1F86420B8FBF0F004014F
:101FC0002009642101FB1089A88910F4004F08D072
:101FD000322000EBC900B0FBF1F000F00700044331
:101FE00008E0322000EB09106421B0FBF1F000F0B2
:101FF0000F0004432C8106B0BDE8F0874FF4165162
:10200000016000218180C18001810C21418100217A
:102010008181704710B502460020108A4FF2FF03FD
:1020200018400B884C8823438C882343CC88234357
:102030001843108210BD0021018041808180C18041
:10204000704721B1828942F40052828104E0828982
:102050004DF6FF731A4082817047F0B503460024A5
:10206000002600250020A1F510676A3F00D100BFBF
:102070001846C1F3421401F01F06012707FA06F5BE
:10208000012C01D10C3004E0022C01D1103000E011
:1020900014301AB107682F43076002E00768AF43A6
:1020A0000760F0BD1AB1838A0B43838202E0838A02
:1020B0008B4383827047028A4FF6F0731A40028284
:1020C000028A0A430282704782894FF2FF731A40E4
:1020D000828182890A438281704721B1828942F0DC
:1020E0000202828104E082894FF6FD731A408281E8
:1020F0007047028A4FF6DF731A400282028A0A434F
:102100000282704721B1028A42F48042028204E0D6
:10211000028A4BF6FF731A4002827047C1F308022D
:102120008280704701468888C0F308007047818923
:1021300041F0010181817047028BD2B20283028B90
:1021400042EA012202837047028B02F47F4202833B
:10215000028B0A430283704721B1828A42F0200237
:10216000828204E0828A4FF6DF731A4082827047CF
:1021700021B1828A42F01002828204E0828A4FF604
:10218000EF731A408282704721B1828A42F00802BE
:10219000828204E0828A4FF6F7731A408282704787
:1021A00021B1828942F40042828103E08289C2F334
:1021B0000E028281704721B1828A42F400628282DB
:1021C00004E0828A4FF2FF731A4082827047828A4B
:1021D0004FF6FB731A408282828A0A4382827047DA
:1021E00021B1828A42F00202828204E0828A4FF6A2
:1021F000FD731A408282704702460020B1F5007FCD
:1022000000D100BF13880B4201D0012000E0002064
:10221000704701F40072B2F5007F00D100BFCA43DD
:102220000280704770B5024600240023002500207C
:10223000A1F510666A3E00D100BFC1F3421501F05E
:102240001F03012606FA03F3012D02D196893340BC
:1022500006E0022D02D1168A334001E0968A33400F
:102260000C12012606FA04F41688344013B10CB19E
:10227000012000E0002070BD10B500220023A1F570
:1022800010646A3C00D100BF0A1201249440A3B23A
:10229000DC43048010BD00000038014000440040D1
:1022A00000480040004C00400050004008B50121AB
:1022B0004FF40470FEF780FE0F20ADF80000002000
:1022C0008DF8030069464748FEF7C0FB08BD00B51E
:1022D00085B0002000908DF804004FF4602002903B
:1022E0000020039004208DF8100069463E48FEF758
:1022F000BEF84FF40040FEF7C6FD01213A48FEF754
:10230000E2F83948FEF701F900BF3748FEF702F955
:102310000028FAD13448FEF707F900BF3248FEF72B
:1023200008F90028FAD105B000BD10B5FFF7BEFFCF
:10233000FFF7CDFF10BD10B504460723012221464B
:102340002948FEF72CF901212748FEF7FCF800BFC9
:1023500002212548FEF768FA0028F9D02248FEF746
:1023600085F910BD2DE9F04385B007468946142153
:10237000684600F018FE4FF00008002609E03846D5
:10238000FFF7D9FF4DF82600052000F0D9FD701C9D
:10239000C6B2052EF3DB00251AE0002412E05DF83A
:1023A0002410601C5DF82000814209D95DF824806A
:1023B000601C5DF820004DF82400601C4DF8208062
:1023C000601CC4B2C5F10400A042E8DC681CC5B2C0
:1023D000042DE2DB64210298B0FBF1F080B205B07D
:1023E000BDE8F08300100140002401401FB5012129
:1023F0004120FEF7E1FD0420ADF80C0028208DF807
:102400000F0003A96648FEF721FB00210420FEF718
:1024100031FC0420019000208DF8080008208DF880
:10242000090001208DF80A0001A8FEF72FFA4FF4E9
:10243000A060FDF787FF08208DF8000001208DF8CF
:10244000010003208DF8020001208DF8030068468A
:10245000FDF77DFF1FBD1FB501214120FEF7ACFD3B
:102460000820ADF80C0028208DF80F0003A94C4877
:10247000FEF7ECFA01210420FEF7FCFB0820019096
:1024800000208DF8080008208DF8090001208DF843
:102490000A0001A8FEF7FAF94FF4A060FDF752FF19
:1024A00009208DF8000001208DF8010002208DF830
:1024B000020001208DF803006846FDF748FF1FBDAC
:1024C0001FB501214120FEF777FD1020ADF80C006B
:1024D00028208DF80F0003A93148FEF7B7FA022132
:1024E0000420FEF7C7FB1020019000208DF80800A3
:1024F00008208DF8090001208DF80A0001A8FEF7D8
:10250000C5F94FF4A060FDF71DFF0A208DF800000B
:1025100001208DF801008DF802008DF80300684657
:10252000FDF715FF1FBD1FB501214120FEF744FD3A
:102530002020ADF80C0028208DF80F0003A91848C2
:10254000FEF784FA05210420FEF794FB2020019079
:1025500000208DF8080008208DF8090001208DF872
:102560000A0001A8FEF792F94FF4A060FDF7EAFE19
:1025700017208DF8000001208DF801008DF8020071
:102580008DF803006846FDF7E2FE1FBD10B5FFF7AA
:102590002DFFFFF760FFFFF793FFFFF7C4FF10BDAC
:1025A0000018014000F090FC00F046F9FFF7BDFE76
:1025B000FFF7ECFF0021084600F09EF900BF012163
:1025C0000D20FFF7CFFE1E28F9DB4FF4FA71084605
:1025D00000F092F94FF47A7000F0B2FC4FF41671EB
:1025E000481000F089F94FF4FA7000F0A9FC04E0FB
:1025F0004FF4C871484200F07FF9F9E770B50A203E
:1026000000F09EFC0420FEF7A7F900283BD000252F
:102610000AE04FF49671142000F06EF96D1C8248A8
:10262000854201D9002505E008218048FEF79FFA80
:102630000028EED000BF002608E03C3C0A2000F055
:102640007FFC2146204600F057F9761C0A2EF4DB69
:102650007749084600F050F9002603E00A2000F010
:102660006FFC761C282EF9DB4FF4C871704864307B
:1026700000F042F94FF4967000F062FC4FF4AF7036
:1026800000F05EFC00BF0C20FEF777F970BD70B55E
:102690000A2000F055FC0820FEF75EF970B3002414
:1026A0000AE014214FF4C87000F026F9641C5E485B
:1026B000844201D9002405E004215C48FEF757FA62
:1026C0000028EED000BF5A49084600F015F9002551
:1026D00003E00A2000F034FC6D1C282DF9DB4FF4D8
:1026E000C8715348643000F007F94FF4967000F059
:1026F00027FC4FF4AF7000F023FC00BF0C20FEF766
:102700003CF970BD7047704770477047704770471D
:1027100010B5002403210A20FFF724FE19280BDD41
:1027200003210B20FFF71EFE192805DD4FF416715B
:10273000084600F0E1F875E003210C20FFF712FED7
:1027400014281FDD4FF4C8716FF0C70000F0D4F8F3
:102750004FF42F7000F0F4FB002400BF641C032131
:102760000A20FFF7FFFDB0F5C86F5BDD03210B20EA
:10277000FFF7F8FD40F26C71884253DD2D4884422A
:10278000ECDD4FE003210D20FFF7ECFD14281FDDE9
:102790006FF0C7014FF4C87000F0AEF84FF42F701F
:1027A00000F0CEFB002400BF641C03210A20FFF7C9
:1027B000D9FDB0F5C86F35DD03210B20FFF7D2FD41
:1027C00040F26C7188422DDD1A488442ECDD29E02C
:1027D00003210420FFF7C6FD1A281EDD4FF4C8713F
:1027E000484200F089F84FF42F7000F0A9FB002454
:1027F00000BF641C03210A20FFF7B4FDB0F5C86FC9
:1028000010DD03210B20FFF7ADFD40F26C71884213
:1028100008DD08488442ECDD04E04FF4C871084646
:1028200000F06AF810BD0000E093040000180140B9
:1028300070FEFFFFA086010000B589B001210520D0
:10284000FEF7BAFB01210220FEF7C3FBC020ADF862
:10285000200018208DF8230003208DF8220008A9FD
:102860005D48FEF7F3F801214020FEF7A5FB4FF489
:10287000F060ADF8200010208DF8230003208DF8C3
:10288000220008A95548FEF7E1F840F2E730ADF81C
:1028900018000020ADF81400ADF81A00ADF81600CD
:1028A00005A94F48FEF7C4FC6020ADF804000120E4
:1028B000ADF806000020ADF80C0001A94848FEF76D
:1028C000F4FC08214648FFF73FF96020ADF804000A
:1028D0000120ADF806000020ADF80C0001A9404829
:1028E000FEF725FD08213E48FFF737F901213C4856
:1028F000FEF7FAFF09B000BD70B504460D46002C86
:1029000015DB002D13DB80213448FEF74AF94FF424
:1029100080713248FEF747F94FF400712F48FEF7F7
:1029200040F94FF480612D48FEF73DF94AE0002C54
:1029300016DB002D14DA6D4280212848FEF733F9AA
:102940004FF480712548FEF72CF94FF400712348AD
:10295000FEF727F94FF480612048FEF724F931E0B3
:10296000002C16DA002D14DB644280211B48FEF790
:1029700018F94FF480711948FEF715F94FF40071FA
:102980001648FEF710F94FF480611448FEF709F974
:1029900018E0002C16DA002D14DA64426D42802112
:1029A0000E48FEF700F94FF480710C48FEF7F9F875
:1029B0004FF400710948FEF7F6F84FF480610748BC
:1029C000FEF7EFF8A1B20648FFF726FAA9B20448CD
:1029D000FFF724FA70BD0000000801400018014014
:1029E00000040040704700BFFEE700BFFEE700BFE5
:1029F000FEE700BFFEE77047704770477047000072
:102A000010B586B0044601210805FEF7E2FA01215F
:102A10001020FEF7D1FA01212020FEF7CDFA4FF465
:102A20008050ADF8140003208DF8160018208DF8A2
:102A3000170005A9FB48FEF709F84FF48050ADF8E0
:102A4000140010208DF8170003208DF8160005A93A
:102A5000F548FDF7FBFF4FF48051F348FEF7A1F86E
:102A600001940020ADF80800ADF80A00ADF80C00A4
:102A7000ADF810000C20ADF80E0001A9EB48FFF7EF
:102A800054FA0121E948FFF7DCFA06B010BD70479F
:102A9000E649888000BFE549098811F0400FFAD067
:102AA00070472DE9FC5F06460C4615460027B846E0
:102AB000B946BA46BB46002001900090B5F5806F3C
:102AC00002DB40F2FF3700E02F46B4F5806F02DBF7
:102AD00040F2FF3800E0A0464FEA272907F0FF0A3E
:102AE0004FEA282B08F0FF000190FF20FFF7D0FFEE
:102AF000FF20FFF7CDFF3046FFF7CAFF0720FFF7A3
:102B0000C7FF0320FFF7C4FF0620FFF7C1FF0198AE
:102B1000FFF7BEFF5846FFF7BBFF5046FFF7B8FF71
:102B20004846FFF7B5FF06F11000019908445844E4
:102B300050444844C0B200900098C043C0B20090D6
:102B40000098FFF7A5FF00BFB848008810F0400FBD
:102B5000FAD0022000F0F4F9BDE8FC9F2DE9FC5FFB
:102B600006460C4615460027B846B946BA46BB4647
:102B7000002001900090B5F5806F02DB40F2FF3736
:102B800000E02F46B4F5806F02DB40F2FF3800E032
:102B9000A0464FEA272907F0FF0A4FEA282B08F042
:102BA000FF000190FF20FFF773FFFF20FFF770FF8A
:102BB0003046FFF76DFF0720FFF76AFF0320FFF79E
:102BC00067FF1E20FFF764FF0198FFF761FF58467B
:102BD000FFF75EFF5046FFF75BFF4846FFF758FFE1
:102BE00006F1280001990844584450444844C0B2B2
:102BF00000900098C043C0B200900098FFF748FFD3
:102C000000BF8A48008810F0400FFAD0022000F080
:102C100097F9BDE8FC9F2DE9F04F8BB081460C463B
:102C200015461E46DDE914784FF0000AD346002011
:102C30000A900990089007900690059004900390E0
:102C4000029001900090A346AA460597CDF81880FF
:102C50004FEA2A200A900AF0FF0009904FEA2B2041
:102C600008900BF0FF000790DDF818804FEA28204D
:102C70000490DDF8188008F0FF000390059F3812DB
:102C80000290059FF8B20190FF20FFF701FFFF209F
:102C9000FFF7FEFEFE20FFF7FBFE0E20FFF7F8FE1B
:102CA0008320FFF7F5FE1E20FFF7F2FE0420FFF75A
:102CB000EFFE4846FFF7ECFE0798FFF7E9FE08989D
:102CC000FFF7E6FE0998FFF7E3FE0A98FFF7E0FE3C
:102CD0003046FFF7DDFE0198FFF7DAFE0298FFF7B6
:102CE000D7FE0398FFF7D4FE0498FFF7D1FE09F250
:102CF000B1108119079801440898014409980144CA
:102D00000A9801440198014402980144039801443F
:102D100004980844C0B200900098C043C0B200902C
:102D20000098FFF7B5FE00BF4048008810F0400F44
:102D3000FAD0022000F004F90BB0BDE8F08F2DE9C5
:102D4000FC5F06460C4615460027B846B946BA460B
:102D5000BB460020019000902F46A0464FEA27294D
:102D600007F0FF0A4FEA282B08F0FF000190FF2030
:102D7000FFF78EFEFF20FFF78BFE3046FFF788FE41
:102D80000720FFF785FE0420FFF782FE1E20FFF7D5
:102D90007FFE0198FFF77CFE5846FFF779FE50460C
:102DA000FFF776FE4846FFF773FE06F1290001990A
:102DB0000844584450444844C0B200900098C0436E
:102DC000C0B200900098FFF763FE00BF174800886C
:102DD00010F0400FFAD0022000F0B2F8BDE8FC9FDE
:102DE00010B50024FF20FFF753FEFF20FFF750FE31
:102DF000FE20FFF74DFE0220FFF74AFE0520FFF7F9
:102E000047FE0524E043C4B22046FFF741FE00BF61
:102E10000648008810F0400FFAD0022000F090F829
:102E200010BD00000010014000140140005000409F
:102E300070B504460025FF20FFF72AFEFF20FFF7AC
:102E400027FE2046FFF724FE0220FFF721FE012087
:102E5000FFF71EFEE01CC5B2E843C5B22846FFF7E7
:102E600017FE00BF1748008810F0400FFAD002206C
:102E700000F066F870BD10B540F2FF320021062068
:102E8000FFF70FFE40F2FF3200210520FFF709FE99
:102E900040F2FF3200210420FFF703FE40F2FF3230
:102EA00000210320FFF7FDFD40F2FF320021022048
:102EB000FFF7F7FD40F2FF3200210120FFF7F1FD9F
:102EC00010BD00000050004010B56FF00400FDF789
:102ED00089FA2D4800682D49B0FBF1F02C490870A3
:102EE0000846007800EB4001C1EBC0104FF6FF71BF
:102EF00001EAC0002749088010BD0146244A127823
:102F00004A434FF0E0235A6100229A611A4612693F
:102F100042F001021A6100BF4FF0E022106910F088
:102F2000010F02D010F4803FF6D04FF0E02212697A
:102F300022F001024FF0E0231A6100229A617047EB
:102F40000146144A12884A434FF0E0235A61002296
:102F50009A611A46126942F001021A6100BF4FF0ED
:102F6000E022106910F0010F02D010F4803FF6D07B
:102F70004FF0E022126922F001024FF0E0231A61C3
:102F800000229A61704700000000002000127A00C1
:102F9000280000202A000020D2B201E000F8012B16
:102FA000491EFBD270470022F6E710B513460A46C9
:102FB00004461946FFF7F0FF204610BD064C074DAA
:102FC00006E0E06840F0010394E8070098471034F9
:102FD000AC42F6D3FDF7B0F800300008203000080E
:102FE00002E008C8121F08C1002AFAD170477047D2
:102FF000002001E001C1121F002AFBD17047000030
:1030000020300008000000202C000000E02F000805
:103010004C3000082C00002004040000F02F0008B1
:1030200000A24A04000000000000000001020304A6
:10303000060708090000000001020304010203045E
:0C30400006070809020406080000000052
:0400000508000131BD
:00000001FF
